{
  "contractName": "SweetpDEX",
  "abi": [
    {
      "inputs": [],
      "name": "addLiquidity",
      "outputs": [],
      "stateMutability": "payable",
      "type": "function"
    },
    {
      "inputs": [
        {
          "internalType": "address",
          "name": "_PPCTokenAddress",
          "type": "address"
        }
      ],
      "stateMutability": "nonpayable",
      "type": "constructor"
    },
    {
      "anonymous": false,
      "inputs": [
        {
          "indexed": true,
          "internalType": "address",
          "name": "provider",
          "type": "address"
        },
        {
          "indexed": false,
          "internalType": "uint256",
          "name": "ethAmount",
          "type": "uint256"
        },
        {
          "indexed": false,
          "internalType": "uint256",
          "name": "tokenAmount",
          "type": "uint256"
        }
      ],
      "name": "AddLiquidity",
      "type": "event"
    },
    {
      "inputs": [],
      "name": "initETH",
      "outputs": [],
      "stateMutability": "payable",
      "type": "function"
    },
    {
      "inputs": [
        {
          "internalType": "uint256",
          "name": "ethAmount",
          "type": "uint256"
        }
      ],
      "name": "removeLiquidity",
      "outputs": [],
      "stateMutability": "nonpayable",
      "type": "function"
    },
    {
      "anonymous": false,
      "inputs": [
        {
          "indexed": true,
          "internalType": "address",
          "name": "provider",
          "type": "address"
        },
        {
          "indexed": false,
          "internalType": "uint256",
          "name": "ethAmount",
          "type": "uint256"
        },
        {
          "indexed": false,
          "internalType": "uint256",
          "name": "tokenAmount",
          "type": "uint256"
        }
      ],
      "name": "RemoveLiquidity",
      "type": "event"
    },
    {
      "inputs": [
        {
          "internalType": "uint256",
          "name": "_x",
          "type": "uint256"
        },
        {
          "internalType": "string",
          "name": "_tokenSymbol",
          "type": "string"
        }
      ],
      "name": "swap",
      "outputs": [],
      "stateMutability": "payable",
      "type": "function"
    },
    {
      "anonymous": false,
      "inputs": [
        {
          "indexed": true,
          "internalType": "address",
          "name": "buyer",
          "type": "address"
        },
        {
          "indexed": true,
          "internalType": "address",
          "name": "seller",
          "type": "address"
        },
        {
          "indexed": false,
          "internalType": "uint256",
          "name": "ethSold",
          "type": "uint256"
        },
        {
          "indexed": false,
          "internalType": "uint256",
          "name": "tokensSold",
          "type": "uint256"
        }
      ],
      "name": "Trade",
      "type": "event"
    },
    {
      "inputs": [
        {
          "internalType": "uint256",
          "name": "amount",
          "type": "uint256"
        }
      ],
      "name": "withdrawETH",
      "outputs": [],
      "stateMutability": "nonpayable",
      "type": "function"
    },
    {
      "inputs": [
        {
          "internalType": "uint256",
          "name": "amount",
          "type": "uint256"
        }
      ],
      "name": "withdrawTokens",
      "outputs": [],
      "stateMutability": "nonpayable",
      "type": "function"
    },
    {
      "inputs": [],
      "name": "getETHBalance",
      "outputs": [
        {
          "internalType": "uint256",
          "name": "",
          "type": "uint256"
        }
      ],
      "stateMutability": "view",
      "type": "function"
    },
    {
      "inputs": [],
      "name": "getMyLiquidityShare",
      "outputs": [
        {
          "internalType": "uint256",
          "name": "",
          "type": "uint256"
        }
      ],
      "stateMutability": "view",
      "type": "function"
    },
    {
      "inputs": [],
      "name": "getTokenBalance",
      "outputs": [
        {
          "internalType": "uint256",
          "name": "",
          "type": "uint256"
        }
      ],
      "stateMutability": "view",
      "type": "function"
    },
    {
      "inputs": [
        {
          "internalType": "address",
          "name": "",
          "type": "address"
        }
      ],
      "name": "liquidityShare",
      "outputs": [
        {
          "internalType": "uint256",
          "name": "",
          "type": "uint256"
        }
      ],
      "stateMutability": "view",
      "type": "function"
    },
    {
      "inputs": [
        {
          "internalType": "address",
          "name": "",
          "type": "address"
        },
        {
          "internalType": "address",
          "name": "",
          "type": "address"
        }
      ],
      "name": "orders",
      "outputs": [
        {
          "internalType": "uint256",
          "name": "",
          "type": "uint256"
        }
      ],
      "stateMutability": "view",
      "type": "function"
    },
    {
      "inputs": [],
      "name": "owner",
      "outputs": [
        {
          "internalType": "address",
          "name": "",
          "type": "address"
        }
      ],
      "stateMutability": "view",
      "type": "function"
    },
    {
      "inputs": [],
      "name": "PPCToken",
      "outputs": [
        {
          "internalType": "contract IERC20",
          "name": "",
          "type": "address"
        }
      ],
      "stateMutability": "view",
      "type": "function"
    }
  ],
  "bytecode": "0x6080604052670de0b6b3a76400006001553480156200001d57600080fd5b5060405162002590380380620025908339818101604052810190620000439190620000e2565b336000806101000a81548173ffffffffffffffffffffffffffffffffffffffff021916908373ffffffffffffffffffffffffffffffffffffffff16021790555080600260006101000a81548173ffffffffffffffffffffffffffffffffffffffff021916908373ffffffffffffffffffffffffffffffffffffffff160217905550506200015c565b600081519050620000dc8162000142565b92915050565b600060208284031215620000f557600080fd5b60006200010584828501620000cb565b91505092915050565b60006200011b8262000122565b9050919050565b600073ffffffffffffffffffffffffffffffffffffffff82169050919050565b6200014d816200010e565b81146200015957600080fd5b50565b612424806200016c6000396000f3fe6080604052600436106100c25760003560e01c806382b2e2571161007f578063deb4a6d211610059578063deb4a6d214610249578063e7c4459514610265578063e8078d9414610290578063f14210a61461029a576100c2565b806382b2e257146101ca5780638da5cb5b146101f55780639c8f9f2314610220576100c2565b80630ba85081146100c75780630f494d0b146101045780631234ec7d1461012f578063315a095d1461016c5780636e9472981461019557806378da7ed9146101c0575b600080fd5b3480156100d357600080fd5b506100ee60048036038101906100e9919061173b565b6102c3565b6040516100fb9190611d0e565b60405180910390f35b34801561011057600080fd5b506101196102e8565b6040516101269190611b73565b60405180910390f35b34801561013b57600080fd5b5061015660048036038101906101519190611712565b61030e565b6040516101639190611d0e565b60405180910390f35b34801561017857600080fd5b50610193600480360381019061018e91906117a0565b610326565b005b3480156101a157600080fd5b506101aa6105b7565b6040516101b79190611d0e565b60405180910390f35b6101c86105bf565b005b3480156101d657600080fd5b506101df61065e565b6040516101ec9190611d0e565b60405180910390f35b34801561020157600080fd5b5061020a610710565b6040516102179190611acf565b60405180910390f35b34801561022c57600080fd5b50610247600480360381019061024291906117a0565b610734565b005b610263600480360381019061025e91906117f2565b610ad1565b005b34801561027157600080fd5b5061027a610f8c565b6040516102879190611d0e565b60405180910390f35b610298610fd3565b005b3480156102a657600080fd5b506102c160048036038101906102bc91906117a0565b6114d8565b005b6004602052816000526040600020602052806000526040600020600091509150505481565b600260009054906101000a900473ffffffffffffffffffffffffffffffffffffffff1681565b60036020528060005260406000206000915090505481565b60008054906101000a900473ffffffffffffffffffffffffffffffffffffffff1673ffffffffffffffffffffffffffffffffffffffff163373ffffffffffffffffffffffffffffffffffffffff16146103b4576040517f08c379a00000000000000000000000000000000000000000000000000000000081526004016103ab90611b8e565b60405180910390fd5b600081116103f7576040517f08c379a00000000000000000000000000000000000000000000000000000000081526004016103ee90611cce565b60405180910390fd5b80600260009054906101000a900473ffffffffffffffffffffffffffffffffffffffff1673ffffffffffffffffffffffffffffffffffffffff166370a08231306040518263ffffffff1660e01b81526004016104539190611acf565b60206040518083038186803b15801561046b57600080fd5b505afa15801561047f573d6000803e3d6000fd5b505050506040513d601f19601f820116820180604052508101906104a391906117c9565b10156104e4576040517f08c379a00000000000000000000000000000000000000000000000000000000081526004016104db90611c2e565b60405180910390fd5b600260009054906101000a900473ffffffffffffffffffffffffffffffffffffffff1673ffffffffffffffffffffffffffffffffffffffff1663a9059cbb60008054906101000a900473ffffffffffffffffffffffffffffffffffffffff16836040518363ffffffff1660e01b8152600401610561929190611b4a565b602060405180830381600087803b15801561057b57600080fd5b505af115801561058f573d6000803e3d6000fd5b505050506040513d601f19601f820116820180604052508101906105b39190611777565b5050565b600047905090565b3373ffffffffffffffffffffffffffffffffffffffff1631341115610619576040517f08c379a000000000000000000000000000000000000000000000000000000000815260040161061090611c4e565b60405180910390fd5b6000341161065c576040517f08c379a000000000000000000000000000000000000000000000000000000000815260040161065390611c8e565b60405180910390fd5b565b6000600260009054906101000a900473ffffffffffffffffffffffffffffffffffffffff1673ffffffffffffffffffffffffffffffffffffffff166370a08231306040518263ffffffff1660e01b81526004016106bb9190611acf565b60206040518083038186803b1580156106d357600080fd5b505afa1580156106e7573d6000803e3d6000fd5b505050506040513d601f19601f8201168201806040525081019061070b91906117c9565b905090565b60008054906101000a900473ffffffffffffffffffffffffffffffffffffffff1681565b60008111610777576040517f08c379a000000000000000000000000000000000000000000000000000000000815260040161076e90611bee565b60405180910390fd5b600047670de0b6b3a76400008361078e9190611e56565b6107989190611e25565b905080600360003373ffffffffffffffffffffffffffffffffffffffff1673ffffffffffffffffffffffffffffffffffffffff16815260200190815260200160002054101561081c576040517f08c379a000000000000000000000000000000000000000000000000000000000815260040161081390611cee565b60405180910390fd5b3373ffffffffffffffffffffffffffffffffffffffff166108fc839081150290604051600060405180830381858888f19350505050158015610862573d6000803e3d6000fd5b5060008283476108729190611dcf565b600260009054906101000a900473ffffffffffffffffffffffffffffffffffffffff1673ffffffffffffffffffffffffffffffffffffffff166370a08231306040518263ffffffff1660e01b81526004016108cd9190611acf565b60206040518083038186803b1580156108e557600080fd5b505afa1580156108f9573d6000803e3d6000fd5b505050506040513d601f19601f8201168201806040525081019061091d91906117c9565b6109279190611e25565b6109319190611e56565b905060008111610976576040517f08c379a000000000000000000000000000000000000000000000000000000000815260040161096d90611bee565b60405180910390fd5b600260009054906101000a900473ffffffffffffffffffffffffffffffffffffffff1673ffffffffffffffffffffffffffffffffffffffff1663a9059cbb33836040518363ffffffff1660e01b81526004016109d3929190611b4a565b602060405180830381600087803b1580156109ed57600080fd5b505af1158015610a01573d6000803e3d6000fd5b505050506040513d601f19601f82011682018060405250810190610a259190611777565b5081600360003373ffffffffffffffffffffffffffffffffffffffff1673ffffffffffffffffffffffffffffffffffffffff1681526020019081526020016000206000828254610a759190611eb0565b925050819055503373ffffffffffffffffffffffffffffffffffffffff167f0fbf06c058b90cb038a618f8c2acbf6145f8b3570fd1fa56abb8f0f3f05b36e88483604051610ac4929190611d29565b60405180910390a2505050565b6000600260009054906101000a900473ffffffffffffffffffffffffffffffffffffffff1673ffffffffffffffffffffffffffffffffffffffff166370a08231306040518263ffffffff1660e01b8152600401610b2e9190611acf565b60206040518083038186803b158015610b4657600080fd5b505afa158015610b5a573d6000803e3d6000fd5b505050506040513d601f19601f82011682018060405250810190610b7e91906117c9565b9050600047905060008183610b939190611e56565b9050604051602001610ba490611aba565b6040516020818303038152906040528051906020012084604051602001610bcb9190611a8e565b604051602081830303815290604052805190602001201415610cd15734945060008583610bf89190611dcf565b82610c039190611e25565b8383610c0f9190611e25565b610c199190611eb0565b9050600260009054906101000a900473ffffffffffffffffffffffffffffffffffffffff1673ffffffffffffffffffffffffffffffffffffffff1663a9059cbb33836040518363ffffffff1660e01b8152600401610c78929190611b4a565b602060405180830381600087803b158015610c9257600080fd5b505af1158015610ca6573d6000803e3d6000fd5b505050506040513d601f19601f82011682018060405250810190610cca9190611777565b5050610f85565b604051602001610ce090611aa5565b6040516020818303038152906040528051906020012084604051602001610d079190611a8e565b604051602081830303815290604052805190602001201415610f425784600260009054906101000a900473ffffffffffffffffffffffffffffffffffffffff1673ffffffffffffffffffffffffffffffffffffffff1663dd62ed3e33306040518363ffffffff1660e01b8152600401610d81929190611aea565b60206040518083038186803b158015610d9957600080fd5b505afa158015610dad573d6000803e3d6000fd5b505050506040513d601f19601f82011682018060405250810190610dd191906117c9565b1015610e12576040517f08c379a0000000000000000000000000000000000000000000000000000000008152600401610e0990611c0e565b60405180910390fd5b600260009054906101000a900473ffffffffffffffffffffffffffffffffffffffff1673ffffffffffffffffffffffffffffffffffffffff166323b872dd3330886040518463ffffffff1660e01b8152600401610e7193929190611b13565b602060405180830381600087803b158015610e8b57600080fd5b505af1158015610e9f573d6000803e3d6000fd5b505050506040513d601f19601f82011682018060405250810190610ec39190611777565b5060008584610ed29190611dcf565b82610edd9190611e25565b8483610ee99190611e25565b610ef39190611eb0565b90503373ffffffffffffffffffffffffffffffffffffffff166108fc829081150290604051600060405180830381858888f19350505050158015610f3b573d6000803e3d6000fd5b5050610f84565b6000610f83576040517f08c379a0000000000000000000000000000000000000000000000000000000008152600401610f7a90611c6e565b60405180910390fd5b5b5b5050505050565b6000600360003373ffffffffffffffffffffffffffffffffffffffff1673ffffffffffffffffffffffffffffffffffffffff16815260200190815260200160002054905090565b60003411611016576040517f08c379a000000000000000000000000000000000000000000000000000000000815260040161100d90611c8e565b60405180910390fd5b3373ffffffffffffffffffffffffffffffffffffffff1631341115611070576040517f08c379a000000000000000000000000000000000000000000000000000000000815260040161106790611c4e565b60405180910390fd5b600034344761107f9190611eb0565b600260009054906101000a900473ffffffffffffffffffffffffffffffffffffffff1673ffffffffffffffffffffffffffffffffffffffff166370a08231306040518263ffffffff1660e01b81526004016110da9190611acf565b60206040518083038186803b1580156110f257600080fd5b505afa158015611106573d6000803e3d6000fd5b505050506040513d601f19601f8201168201806040525081019061112a91906117c9565b6111349190611e25565b61113e9190611e56565b9050600260009054906101000a900473ffffffffffffffffffffffffffffffffffffffff1673ffffffffffffffffffffffffffffffffffffffff166370a08231336040518263ffffffff1660e01b815260040161119b9190611acf565b60206040518083038186803b1580156111b357600080fd5b505afa1580156111c7573d6000803e3d6000fd5b505050506040513d601f19601f820116820180604052508101906111eb91906117c9565b81111561122d576040517f08c379a000000000000000000000000000000000000000000000000000000000815260040161122490611c4e565b60405180910390fd5b60008111611270576040517f08c379a000000000000000000000000000000000000000000000000000000000815260040161126790611bae565b60405180910390fd5b80600260009054906101000a900473ffffffffffffffffffffffffffffffffffffffff1673ffffffffffffffffffffffffffffffffffffffff1663dd62ed3e33306040518363ffffffff1660e01b81526004016112ce929190611aea565b60206040518083038186803b1580156112e657600080fd5b505afa1580156112fa573d6000803e3d6000fd5b505050506040513d601f19601f8201168201806040525081019061131e91906117c9565b101561135f576040517f08c379a000000000000000000000000000000000000000000000000000000000815260040161135690611cae565b60405180910390fd5b600260009054906101000a900473ffffffffffffffffffffffffffffffffffffffff1673ffffffffffffffffffffffffffffffffffffffff166323b872dd3330846040518463ffffffff1660e01b81526004016113be93929190611b13565b602060405180830381600087803b1580156113d857600080fd5b505af11580156113ec573d6000803e3d6000fd5b505050506040513d601f19601f820116820180604052508101906114109190611777565b5047670de0b6b3a7640000346114269190611e56565b6114309190611e25565b600360003373ffffffffffffffffffffffffffffffffffffffff1673ffffffffffffffffffffffffffffffffffffffff168152602001908152602001600020600082825461147e9190611dcf565b925050819055503373ffffffffffffffffffffffffffffffffffffffff167f06239653922ac7bea6aa2b19dc486b9361821d37712eb796adfd38d81de278ca34836040516114cd929190611d29565b60405180910390a250565b60008054906101000a900473ffffffffffffffffffffffffffffffffffffffff1673ffffffffffffffffffffffffffffffffffffffff163373ffffffffffffffffffffffffffffffffffffffff1614611566576040517f08c379a000000000000000000000000000000000000000000000000000000000815260040161155d90611b8e565b60405180910390fd5b600081116115a9576040517f08c379a00000000000000000000000000000000000000000000000000000000081526004016115a090611cce565b60405180910390fd5b804710156115ec576040517f08c379a00000000000000000000000000000000000000000000000000000000081526004016115e390611bce565b60405180910390fd5b60008054906101000a900473ffffffffffffffffffffffffffffffffffffffff1673ffffffffffffffffffffffffffffffffffffffff166108fc829081150290604051600060405180830381858888f19350505050158015611652573d6000803e3d6000fd5b5050565b600061166961166484611d77565b611d52565b90508281526020810184848401111561168157600080fd5b61168c848285611f50565b509392505050565b6000813590506116a3816123a9565b92915050565b6000815190506116b8816123c0565b92915050565b600082601f8301126116cf57600080fd5b81356116df848260208601611656565b91505092915050565b6000813590506116f7816123d7565b92915050565b60008151905061170c816123d7565b92915050565b60006020828403121561172457600080fd5b600061173284828501611694565b91505092915050565b6000806040838503121561174e57600080fd5b600061175c85828601611694565b925050602061176d85828601611694565b9150509250929050565b60006020828403121561178957600080fd5b6000611797848285016116a9565b91505092915050565b6000602082840312156117b257600080fd5b60006117c0848285016116e8565b91505092915050565b6000602082840312156117db57600080fd5b60006117e9848285016116fd565b91505092915050565b6000806040838503121561180557600080fd5b6000611813858286016116e8565b925050602083013567ffffffffffffffff81111561183057600080fd5b61183c858286016116be565b9150509250929050565b61184f81611ee4565b82525050565b61185e81611f2c565b82525050565b600061186f82611da8565b6118798185611dc4565b9350611889818560208601611f5f565b80840191505092915050565b60006118a2602583611db3565b91506118ad82612061565b604082019050919050565b60006118c5602483611db3565b91506118d0826120b0565b604082019050919050565b60006118e8601683611db3565b91506118f3826120ff565b602082019050919050565b600061190b602083611db3565b915061191682612128565b602082019050919050565b600061192e601983611db3565b915061193982612151565b602082019050919050565b6000611951601b83611db3565b915061195c8261217a565b602082019050919050565b6000611974602383611db3565b915061197f826121a3565b604082019050919050565b6000611997600383611dc4565b91506119a2826121f2565b600382019050919050565b60006119ba602183611db3565b91506119c58261221b565b604082019050919050565b60006119dd602483611db3565b91506119e88261226a565b604082019050919050565b6000611a00602883611db3565b9150611a0b826122b9565b604082019050919050565b6000611a23600383611dc4565b9150611a2e82612308565b600382019050919050565b6000611a46602983611db3565b9150611a5182612331565b604082019050919050565b6000611a69601a83611db3565b9150611a7482612380565b602082019050919050565b611a8881611f22565b82525050565b6000611a9a8284611864565b915081905092915050565b6000611ab08261198a565b9150819050919050565b6000611ac582611a16565b9150819050919050565b6000602082019050611ae46000830184611846565b92915050565b6000604082019050611aff6000830185611846565b611b0c6020830184611846565b9392505050565b6000606082019050611b286000830186611846565b611b356020830185611846565b611b426040830184611a7f565b949350505050565b6000604082019050611b5f6000830185611846565b611b6c6020830184611a7f565b9392505050565b6000602082019050611b886000830184611855565b92915050565b60006020820190508181036000830152611ba781611895565b9050919050565b60006020820190508181036000830152611bc7816118b8565b9050919050565b60006020820190508181036000830152611be7816118db565b9050919050565b60006020820190508181036000830152611c07816118fe565b9050919050565b60006020820190508181036000830152611c2781611921565b9050919050565b60006020820190508181036000830152611c4781611944565b9050919050565b60006020820190508181036000830152611c6781611967565b9050919050565b60006020820190508181036000830152611c87816119ad565b9050919050565b60006020820190508181036000830152611ca7816119d0565b9050919050565b60006020820190508181036000830152611cc7816119f3565b9050919050565b60006020820190508181036000830152611ce781611a39565b9050919050565b60006020820190508181036000830152611d0781611a5c565b9050919050565b6000602082019050611d236000830184611a7f565b92915050565b6000604082019050611d3e6000830185611a7f565b611d4b6020830184611a7f565b9392505050565b6000611d5c611d6d565b9050611d688282611f92565b919050565b6000604051905090565b600067ffffffffffffffff821115611d9257611d91612021565b5b611d9b82612050565b9050602081019050919050565b600081519050919050565b600082825260208201905092915050565b600081905092915050565b6000611dda82611f22565b9150611de583611f22565b9250827fffffffffffffffffffffffffffffffffffffffffffffffffffffffffffffffff03821115611e1a57611e19611fc3565b5b828201905092915050565b6000611e3082611f22565b9150611e3b83611f22565b925082611e4b57611e4a611ff2565b5b828204905092915050565b6000611e6182611f22565b9150611e6c83611f22565b9250817fffffffffffffffffffffffffffffffffffffffffffffffffffffffffffffffff0483118215151615611ea557611ea4611fc3565b5b828202905092915050565b6000611ebb82611f22565b9150611ec683611f22565b925082821015611ed957611ed8611fc3565b5b828203905092915050565b6000611eef82611f02565b9050919050565b60008115159050919050565b600073ffffffffffffffffffffffffffffffffffffffff82169050919050565b6000819050919050565b6000611f3782611f3e565b9050919050565b6000611f4982611f02565b9050919050565b82818337600083830152505050565b60005b83811015611f7d578082015181840152602081019050611f62565b83811115611f8c576000848401525b50505050565b611f9b82612050565b810181811067ffffffffffffffff82111715611fba57611fb9612021565b5b80604052505050565b7f4e487b7100000000000000000000000000000000000000000000000000000000600052601160045260246000fd5b7f4e487b7100000000000000000000000000000000000000000000000000000000600052601260045260246000fd5b7f4e487b7100000000000000000000000000000000000000000000000000000000600052604160045260246000fd5b6000601f19601f8301169050919050565b7f4f6e6c7920746865206f776e65722063616e2063616c6c20746869732066756e60008201527f6374696f6e000000000000000000000000000000000000000000000000000000602082015250565b7f50504320616d6f756e74206d7573742062652067726561746572207468616e2060008201527f7a65726f00000000000000000000000000000000000000000000000000000000602082015250565b7f4e6f7420656e6f756768204554482062616c616e636500000000000000000000600082015250565b7f416d6f756e74206d7573742062652067726561746572207468616e207a65726f600082015250565b7f546f6b656e20616c6c6f77616e636520746f6f20736d616c6c00000000000000600082015250565b7f4e6f7420656e6f75676820505043546f6b656e2062616c616e63650000000000600082015250565b7f6e6f7420656e6f7567682062616c616e636520746f20616464206c697175696460008201527f6974790000000000000000000000000000000000000000000000000000000000602082015250565b7f5050430000000000000000000000000000000000000000000000000000000000600082015250565b7f546f6b656e2053796d626f6c65206e65697468657220455448206e6f7220505060008201527f4300000000000000000000000000000000000000000000000000000000000000602082015250565b7f45544820616d6f756e74206d7573742062652067726561746572207468616e2060008201527f7a65726f00000000000000000000000000000000000000000000000000000000602082015250565b7f45524332303a205472616e7366657220616d6f756e742065786365656473206160008201527f6c6c6f77616e6365000000000000000000000000000000000000000000000000602082015250565b7f4554480000000000000000000000000000000000000000000000000000000000600082015250565b7f576974686472617720616d6f756e74206d75737420626520677265617465722060008201527f7468616e207a65726f0000000000000000000000000000000000000000000000602082015250565b7f4e6f7420656e6f756768206c6971756964697479207368617265000000000000600082015250565b6123b281611ee4565b81146123bd57600080fd5b50565b6123c981611ef6565b81146123d457600080fd5b50565b6123e081611f22565b81146123eb57600080fd5b5056fea2646970667358221220b314627f5b6fb6dae0d23c221666d71a8b323a2c9937a216bdcaa54680198c7c64736f6c63430008010033",
  "immutableReferences": {},
  "source": "// SPDX-License-Identifier: MIT\r\npragma solidity ^0.8.0;\r\n\r\nimport \"./IERC20.sol\"; // PPCToken ERC20 \r\n\r\ncontract SweetpDEX{\r\n    address public owner;\r\n    // uint256 public totalLiquidity;\r\n    uint256 tokenDecimal = 10 ** 18;\r\n\r\n    IERC20 public PPCToken;  // PPCToken ERC20 \r\n\r\n    mapping(address => uint256) public liquidityShare; //    ,   0  solidity      10 ** 18   .\r\n    mapping(address => mapping(address => uint256)) public orders;\r\n\r\n    event AddLiquidity(address indexed provider, uint256 ethAmount, uint256 tokenAmount);\r\n    event RemoveLiquidity(address indexed provider, uint256 ethAmount, uint256 tokenAmount);\r\n    event Trade(address indexed buyer, address indexed seller, uint256 ethSold, uint256 tokensSold);\r\n\r\n    modifier onlyOwner() {\r\n        require(msg.sender == owner, \"Only the owner can call this function\");\r\n        _;\r\n    }\r\n\r\n    constructor(address _PPCTokenAddress) {\r\n        owner = msg.sender;\r\n        PPCToken = IERC20(_PPCTokenAddress);\r\n    }\r\n\r\n\r\n    // PPCToken   \r\n    function getTokenBalance() external view returns (uint256) {\r\n        return PPCToken.balanceOf(address(this));\r\n    }\r\n\r\n    //     \r\n    function getETHBalance() external view returns (uint256) {\r\n        return address(this).balance;\r\n    }\r\n\r\n    function getMyLiquidityShare() external view returns (uint) {\r\n        return liquidityShare[msg.sender];\r\n    }\r\n\r\n    function initETH() external payable {\r\n        require(msg.value <= msg.sender.balance, \"not enough balance to add liquidity\");\r\n        require(msg.value > 0, \"ETH amount must be greater than zero\");\r\n        // liquidityShare[msg.sender] += msg.value;\r\n        // totalLiquidity += msg.value;\r\n    }\r\n\r\n\r\n    // ETH, PPC   \r\n    function addLiquidity() external payable {\r\n             \r\n        require(msg.value > 0, \"ETH amount must be greater than zero\");\r\n        require(msg.value <= msg.sender.balance, \"not enough balance to add liquidity\");\r\n        uint tokenAmount = PPCToken.balanceOf(address(this)) / (address(this).balance-msg.value) * msg.value; // PPC/ETH  * ETH , address(this).balance payable   msg.value    - msg.value  .\r\n        require(tokenAmount <= PPCToken.balanceOf(msg.sender), \"not enough balance to add liquidity\");\r\n        require(tokenAmount > 0, \"PPC amount must be greater than zero\");\r\n        require(PPCToken.allowance(msg.sender,address(this)) >= tokenAmount, \"ERC20: Transfer amount exceeds allowance\");// Ensure the contract has enough allowance to move tokens on behalf of the sender.\r\n        PPCToken.transferFrom(msg.sender, address(this), tokenAmount);\r\n        liquidityShare[msg.sender] += msg.value * 10**18 / address(this).balance; //  ETH  ETH        ,  0  10 ** 18    . \r\n        emit AddLiquidity(msg.sender, msg.value, tokenAmount);\r\n        \r\n    }\r\n\r\n    function removeLiquidity(uint256 ethAmount) external {\r\n        require(ethAmount > 0, \"Amount must be greater than zero\");\r\n        uint removeShare = ethAmount * 10**18 / address(this).balance; //  ,  0  10 ** 18    . \r\n        require(liquidityShare[msg.sender] >= removeShare, \"Not enough liquidity share\"); // ETH    \r\n        payable(msg.sender).transfer(ethAmount); //  ETH \r\n        uint tokenAmount = PPCToken.balanceOf(address(this)) / (address(this).balance + ethAmount) * ethAmount; //  ETH  PPC \r\n        require(tokenAmount > 0, \"Amount must be greater than zero\");\r\n        PPCToken.transfer(msg.sender, tokenAmount); // PPC \r\n        liquidityShare[msg.sender] -=  removeShare; //  ETH /  ETH ()\r\n        emit RemoveLiquidity(msg.sender, ethAmount, tokenAmount);\r\n    }\r\n\r\n  //        ex) _x = 11, _tokenSymbol = \"ETH\"  11ETH      PPC  .\r\n    function swap(uint256 _x, string memory _tokenSymbol) public payable {\r\n            uint tokenReserve = PPCToken.balanceOf(address(this));\r\n            uint ethReserve = address(this).balance;\r\n            uint k = tokenReserve * ethReserve;\r\n        if(keccak256(abi.encodePacked(_tokenSymbol)) == keccak256(abi.encodePacked(\"ETH\"))) {\r\n            _x = msg.value;\r\n            uint swapTokenAmount = (k/ethReserve) - (k/(ethReserve + _x));\r\n            // uint swapTokenAmount = getSwapRatio(_x, _tokenSymbol) * _x; //      \r\n            PPCToken.transfer(msg.sender, swapTokenAmount);\r\n        }\r\n        else if (keccak256(abi.encodePacked(_tokenSymbol)) == keccak256(abi.encodePacked(\"PPC\"))) {\r\n            // Ensure the contract has enough allowance to move tokens on behalf of the sender.\r\n            require(PPCToken.allowance(msg.sender, address(this)) >= _x, \"Token allowance too small\");\r\n            PPCToken.transferFrom(msg.sender, address(this), _x);\r\n            uint swapEthAmount = (k/tokenReserve) - (k/(tokenReserve + _x));\r\n            payable(msg.sender).transfer(swapEthAmount);\r\n            // emit Swap(msg.sender, ethAmount, tokenAmount);\r\n        }\r\n        else {\r\n            require(false, \"Token Symbole neither ETH nor PPC\");\r\n        }\r\n    }\r\n\r\n\r\n    //    \r\n    function withdrawETH(uint256 amount) external onlyOwner {\r\n        require(amount > 0, \"Withdraw amount must be greater than zero\");\r\n        require(address(this).balance >= amount, \"Not enough ETH balance\");\r\n        payable(owner).transfer(amount);\r\n    }\r\n\r\n    // PPCToken   \r\n    function withdrawTokens(uint256 amount) external onlyOwner {\r\n        require(amount > 0, \"Withdraw amount must be greater than zero\");\r\n        require(PPCToken.balanceOf(address(this)) >= amount, \"Not enough PPCToken balance\");\r\n        PPCToken.transfer(owner, amount);\r\n    }\r\n\r\n\r\n\r\n\r\n\r\n\r\n    // //      ex) _x = 11, _tokenSymbol = \"ETH\"  11ETH PCKToken   1ETH  PCToken   \r\n    // //     \r\n    // function getSwapRatio(uint256 _x, string memory _tokenSymbol) public view returns (uint){\r\n    //     require(PPCToken.balanceOf(address(this)) > 0 && address(this).balance > 0, \"Liquidity pull amount must be grater than zero\"); //     0  \r\n    //     require(_x > 0 , \"Token or ETH amount to send must be greater than zero\"); //     0  .\r\n    //     require((keccak256(abi.encodePacked(_tokenSymbol)) == keccak256(abi.encodePacked(\"ETH\")))\r\n    //     || (keccak256(abi.encodePacked(_tokenSymbol)) == keccak256(abi.encodePacked(\"PPC\"))), \"token type must be 'ETH' or 'PPC'\");\r\n        \r\n    //     uint ratio;\r\n    //     uint ethReserve = address(this).balance; \r\n    //     uint PPCReserve = PPCToken.balanceOf(address(this));\r\n    //     uint k = ethReserve * PPCReserve;\r\n    //     if(keccak256(abi.encodePacked(_tokenSymbol)) == keccak256(abi.encodePacked(\"ETH\"))) {\r\n            \r\n    //         ratio = (k/ethReserve) - (k/(ethReserve + _x));\r\n            \r\n    //     }\r\n    //     else if (keccak256(abi.encodePacked(_tokenSymbol)) == keccak256(abi.encodePacked(\"PPC\"))) {\r\n    //         ratio = (k/PPCReserve) - (k/(PPCReserve + _x));\r\n    //     }\r\n    //     return ratio / _x;\r\n    // }\r\n\r\n  \r\n\r\n    \r\n\r\n\r\n    // function trade(uint256 ethSold, uint256 minTokensBought) external {\r\n    //     require(ethSold > 0, \"ETH amount must be greater than zero\");\r\n    //     require(minTokensBought > 0, \"Minimum token amount must be greater than zero\");\r\n\r\n    //     uint256 tokenReserve = PPCToken.balanceOf(address(this));\r\n    //     uint256 ethReserve = address(this).balance - totalLiquidity;\r\n\r\n    //     uint256 tokensBought = (tokenReserve * ethSold) / ethReserve;\r\n    //     require(tokensBought >= minTokensBought, \"Trade resulted in fewer tokens than expected\");\r\n\r\n    //     require(PPCToken.transferFrom(msg.sender, address(this), tokensBought), \"Token transfer failed\");\r\n    //     payable(msg.sender).transfer(ethSold);\r\n\r\n    //     emit Trade(msg.sender, address(this), ethSold, tokensBought);\r\n    // }\r\n\r\n    // //  PPCToken  \r\n    // function getBalances() external view returns (uint256 ethBalance, uint256 tokenBalance) {\r\n    //     return (address(this).balance, PPCToken.balanceOf(address(this)));\r\n    // }\r\n\r\n   // function getPPCTokenInfo() public view returns(string memory _name, uint _totalSupply){\r\n    //     _name = PPCToken.name();\r\n    //     _totalSupply = PPCToken.totalSupply();\r\n        \r\n    // }\r\n\r\n    // //ETH  Swap token   #  token      .\r\n    // function swapETH(uint _swaptedAmount) external payable {\r\n    //     require(msg.value > 0, \"ETH amount must be greater than zero\");\r\n    //     require(_swaptedAmount > 0, \"ETH amount must be greater than zero\");\r\n    //     liquidity[msg.sender] += msg.value;\r\n    //     totalLiquidity += msg.value;\r\n    //     PPCToken.transfer(msg.sender, _swaptedAmount);\r\n    // }\r\n\r\n    // function swapToken(uint _tokenAmount, uint _ethAmount) external {\r\n    //     require(_tokenAmount <= PPCToken.balanceOf(msg.sender), \"not enough balance to add liquidity\");\r\n    //     require(_tokenAmount > 0, \"PPC amount must be greater than zero\");\r\n    //     require(PPCToken.allowance(msg.sender, address(this)) >= _tokenAmount, \"Token allowance too small\");\r\n    //     require(_ethAmount <= address(this).balance, \"not enough ETH in contract\");\r\n    //     PPCToken.transferFrom(msg.sender, address(this), _tokenAmount);\r\n    //     payable(msg.sender).transfer(_ethAmount);\r\n    // }\r\n\r\n    // //    ex) _tokenSymbol = 'ETH'    1ETH  PPC   PPC/ETH \r\n    // function getLiquidityRatio(string memory _tokenSymbol) public view returns(uint ratio) {\r\n    //     if(keccak256(abi.encodePacked(_tokenSymbol)) == keccak256(abi.encodePacked(\"ETH\"))) {\r\n    //         return PPCToken.balanceOf(address(this)) / address(this).balance;\r\n    //     }\r\n    //     else if (keccak256(abi.encodePacked(_tokenSymbol)) == keccak256(abi.encodePacked(\"PPC\"))) {\r\n    //         return address(this).balance / PPCToken.balanceOf(address(this));\r\n    //     }\r\n    // }\r\n\r\n\r\n}",
  "sourcePath": "C:\\Users\\p\\Desktop\\\\3 \\contracts\\SweetpDex.sol",
  "compiler": {
    "name": "solc",
    "version": "0.8.1+commit.df193b15.Emscripten.clang"
  },
  "schemaVersion": "3.4.14",
  "updatedAt": "2023-07-26T14:01:12.637Z",
  "devdoc": {
    "kind": "dev",
    "methods": {},
    "version": 1
  },
  "userdoc": {
    "kind": "user",
    "methods": {},
    "version": 1
  },
  "deployedAddress": "0x6384aBa8C09DD93bB0a2a9755044BFab6806bc42"
}